:020000040800F2
:1000000000500020E5080008150800081D08000839
:10001000250800082D080008350800080000000029
:100020000000000000000000000000003D08000883
:100030004908000800000000550800086108000891
:100040002D0900082D0900082D0900082D090008B8
:100050002D0900082D0900082D0900082D090008A8
:100060002D0900082D0900082D0900082D09000898
:100070002D0900082D0900082D0900082D09000888
:100080002D0900082D0900082D0900082D09000878
:100090002D0900082D0900082D0900082D09000868
:1000A0002D0900082D0900082D0900082D09000858
:1000B0002D0900082D0900082D0900082D09000848
:1000C0002D0900082D0900082D0900082D09000838
:1000D0002D0900082D0900082D0900082D09000828
:1000E0002D0900082D0900082D0900080000000056
:1000F0000000000000000000000000000000000000
:0C01000000000000000000005FF808F1A3
:10010C0010B5054C237833B9044B13B10448AFF345
:10011C0000800123237010BD5C0000200000000053
:10012C002C38000808B5034B1BB103490348AFF347
:10013C00008008BD00000000600000202C38000882
:10014C00034613F8012B002AFBD1181A013870470B
:10015C00B0B594B000AF002387F84F30354B07F1A2
:10016C0028041D460FCD0FC42B682370324B07F1AA
:10017C0014041D460FCD0FC42B6823702F4B3C4627
:10018C001D460FCD0FC42B68238000F0CBF907F16F
:10019C0028014FF0FF331022294802F0BDFC002348
:1001AC0087F84E3033E097F84E309BB25B0099B233
:1001BC0005230322234801F06DFB034687F84D30DD
:1001CC0097F84D30002B1DD197F84E2007F13C03CA
:1001DC001D49184602F074FE07F13C014FF0FF3345
:1001EC000D22174802F098FC97F84E30532B09D18A
:1001FC0039464FF0FF331122114802F08DFC0123D8
:10020C0087F84F3097F84E30013387F84E3097F916
:10021C004E30002BC7DA07F114014FF0FF331022D8
:10022C00074802F079FC97F84F3018465037BD4616
:10023C00B0BD00BF54380008683800087C3800088E
:10024C00CC000020780000204438000880B586B02F
:10025C0004AF4FF0FF33029301230193BB1D0093B6
:10026C0001230022A621204801F0A0F80346FB71CF
:10027C00FB79002B01D0002332E0BB79E52B01D0B8
:10028C0000232DE00023BB714FF0FF3302930123B9
:10029C000193BB1D009301232D22A621124800F0CF
:1002AC008BFF0823BB714FF0FF33029301230193A3
:1002BC00BB1D009301232D22A6210B4800F07CFFCF
:1002CC000923BB714FF0FF33029301230193BB1D34
:1002DC00009301233122A621034800F06DFF012376
:1002EC0018460837BD4680BD7800002080B58AB01E
:1002FC0004AFF860B9607A604FF0FF3302930623C5
:10030C00019307F11003009301233222A621124816
:10031C0001F04CF87B7C1BB21B021AB23B7C1BB26B
:10032C0013431AB2FB681A80FB7C1BB21B021AB275
:10033C00BB7C1BB213431AB2BB681A807B7D1BB209
:10034C001B021AB23B7D1BB213431AB27B681A8094
:10035C0000BF1837BD4680BD7800002080B596B030
:10036C0002AF00F0DFFA00F0A1F800F033F900F072
:10037C00D9F800F005F9FFF7EBFE0346002B65D02A
:10038C00FFF764FF0346012B3ED164230322A62111
:10039C003F4801F07FFA0346002B0DD03D4BBB6468
:1003AC00B86CFFF7CDFE03469AB24FF0FF33B96C31
:1003BC00394802F0B1FB6AE007F1420207F144014F
:1003CC0007F146031846FFF791FFB7F946301A4676
:1003DC00B7F944301946B7F94230384600930B460A
:1003EC002E4902F06DFD3B461846FFF7A9FE034669
:1003FC009AB239464FF0FF33274802F08DFB4FF489
:10040C00FA7000F0F1FAC0E701224FF400512448D1
:10041C0000F076FD234BFB64F86CFFF791FE03466E
:10042C009AB24FF0FF33F96C1B4802F075FB4FF496
:10043C007A7000F0D9FA00224FF40051184800F0FD
:10044C005FFD4FF47A7000F0CFFA94E701224FF47D
:10045C000051134800F054FD134BFB64F86CFFF78C
:10046C006FFE03469AB24FF0FF33F96C0A4802F064
:10047C0053FB4FF47A7000F0B7FA00224FF400519E
:10048C00074800F03DFD4FF47A7000F0ADFA72E7CA
:10049C007800002090380008CC000020A838000814
:1004AC0000100140BC380008D438000880B590B06A
:1004BC0000AF07F1180328220021184602F022FD94
:1004CC003B1D00221A605A609A60DA601A6102239E
:1004DC00BB610123BB621023FB6200237B6307F12A
:1004EC001803184601F0B8FE0346002B01D000F0AB
:1004FC00C9F80F237B600023BB600023FB60002343
:10050C003B6100237B613B1D0021184602F026F95C
:10051C000346002B01D000F0B5F800BF4037BD46B4
:10052C0080BD000080B500AF124B134A1A60114B0E
:10053C00124A5A600F4B00229A600E4B0022DA606E
:10054C000C4B4FF480421A610A4B00225A61094B42
:10055C0000229A61074B0022DA61064B00221A62D4
:10056C00044800F0E5FC0346002B01D000F08AF8AB
:10057C0000BF80BD7800002000540040A086010020
:10058C0080B500AF114B124A1A60104B4FF4165243
:10059C005A600E4B00229A600C4B0022DA600B4B17
:1005AC0000221A61094B0C225A61084B00229A61F5
:1005BC00064B0022DA61054802F05EFA0346002B76
:1005CC0001D000F05FF800BF80BD00BFCC00002060
:1005DC000038014080B588B000AF07F1100300224D
:1005EC001A605A609A60DA60244B9B69234A43F084
:1005FC0010039361214B9B6903F01003FB60FB68B4
:10060C001E4B9B691D4A43F0200393611B4B9B6956
:10061C0003F02003BB60BB68184B9B69174A43F07F
:10062C0004039361154B9B6903F004037B607B68A7
:10063C00124B9B69114A43F0080393610F4B9B6962
:10064C0003F008033B603B6800224FF400510C4858
:10065C0000F056FC4FF400533B6101237B610023F7
:10066C00BB610223FB6107F110031946044800F03B
:10067C00C3FA00BF2037BD4680BD00BF001002404A
:10068C000010014080B400AF72B600BF00BFFDE7A0
:10069C0080B485B000AF154B9B69144A43F001033D
:1006AC009361124B9B6903F00103BB60BB680F4B5A
:1006BC00DB690E4A43F08053D3610C4BDB6903F0CA
:1006CC0080537B607B680A4B5B68FB60FB6823F0A4
:1006DC00E063FB60FB6843F00073FB60044AFB685B
:1006EC00536000BF1437BD4680BC704700100240F9
:1006FC000000014080B588B000AF786007F11003AE
:10070C0000221A605A609A60DA607B681B68154A8E
:10071C00934223D1144B9B69134A43F00803936112
:10072C00114B9B6903F00803FB60FB68C0233B6122
:10073C0012237B610323FB6107F1100319460B485D
:10074C0000F05AFA084BDB69074A43F40013D361F3
:10075C00054BDB6903F40013BB60BB6800BF20379B
:10076C00BD4680BD0054004000100240000C01400A
:10077C0080B588B000AF786007F1100300221A60D2
:10078C005A609A60DA607B681B681C4A934231D1CC
:10079C001B4B9B691A4A43F480439361184B9B692A
:1007AC0003F48043FB60FB68154B9B69144A43F0D0
:1007BC0004039361124B9B6903F00403BB60BB6899
:1007CC004FF400733B6102237B610323FB6107F150
:1007DC00100319460B4800F00FFA4FF480633B618D
:1007EC0000237B610023BB6107F110031946054808
:1007FC0000F002FA00BF2037BD4680BD0038014032
:10080C00001002400008014080B400AF00BFFDE7BB
:10081C0080B400AF00BFFDE780B400AF00BFFDE7C0
:10082C0080B400AF00BFFDE780B400AF00BFFDE7B0
:10083C0080B400AF00BFBD4680BC704780B400AF31
:10084C0000BFBD4680BC704780B400AF00BFBD4642
:10085C0080BC704780B500AF00F0AAF800BF80BD27
:10086C0080B586B000AF7860144A154BD31A7B6103
:10087C007B693B61134B1B68002B02D1114B124A55
:10088C001A60104B1A687B6813443A699A4207D273
:10089C0002F040FB03460C221A604FF0FF3309E0D4
:1008AC00084B1B68FB60074B1A687B681344054AAE
:1008BC001360FB6818461837BD4680BD00500020F9
:1008CC0000040000140100206802002080B400AF76
:1008DC0000BFBD4680BC7047FFF7F8FF0B480C49C2
:1008EC000C4A002302E0D458C4500433C4188C4280
:1008FC00F9D3094A094C002301E013600432A242E7
:10090C00FBD302F00DFBFFF729FD70470000002020
:10091C005C0000205C3900085C00002064020020B0
:10092C00FEE7000080B500AF084B1B68074A43F098
:10093C0010031360032000F02BF90F2000F008F8CF
:10094C00FFF7A6FE0023184680BD00BF0020024022
:10095C0080B582B000AF7860124B1A68124B1B78CE
:10096C0019464FF47A73B3FBF1F3B2FBF3F3184669
:10097C0000F035F90346002B01D001230EE07B6813
:10098C000F2B0AD8002279684FF0FF3000F00BF9DA
:10099C00064A7B681360002300E0012318460837E1
:1009AC00BD4680BD0000002008000020040000208F
:1009BC0080B400AF054B1B781A46054B1B681344DB
:1009CC00034A136000BFBD4680BC7047080000207E
:1009DC001801002080B400AF024B1B681846BD46BE
:1009EC0080BC70471801002080B584B000AF7860DF
:1009FC00FFF7F0FFB8607B68FB60FB68B3F1FF3F6B
:100A0C0005D00A4B1B781A46FB681344FB6000BFE9
:100A1C00FFF7E0FF0246BB68D31AFA689A42F7D890
:100A2C0000BF00BF1037BD4680BD00BF08000020CE
:100A3C0080B485B000AF78607B6803F00703FB607F
:100A4C000C4BDB68BB60BA684FF6FF031340BB600E
:100A5C00FB681A02BB68134343F0BF6343F40033D3
:100A6C00BB60044ABB68D36000BF1437BD4680BC72
:100A7C00704700BF00ED00E080B400AF044BDB68B2
:100A8C001B0A03F007031846BD4680BC704700BF25
:100A9C0000ED00E080B483B000AF03463960FB7119
:100AAC0097F90730002B0ADB3B68DAB20C4997F94F
:100ABC0007301201D2B20B4483F800230AE03B68E2
:100ACC00DAB20849FB7903F00F03043B1201D2B2EE
:100ADC000B441A7600BF0C37BD4680BC704700BF74
:100AEC0000E100E000ED00E080B489B000AFF860F8
:100AFC00B9607A60FB6803F00703FB61FB69C3F123
:100B0C000703042B28BF0423BB61FB690433062BAA
:100B1C0002D9FB69033B00E000237B614FF0FF32FD
:100B2C00BB6902FA03F3DA43BB681A407B699A404B
:100B3C004FF0FF317B6901FA03F3D9437B680B401B
:100B4C00134318462437BD4680BC704780B582B02D
:100B5C0000AF78607B68013BB3F1807F01D3012348
:100B6C000FE00A4A7B68013B53600F214FF0FF30C6
:100B7C00FFF790FF054B00229A60044B07221A6086
:100B8C00002318460837BD4680BD00BF10E000E0CA
:100B9C0080B582B000AF78607868FFF749FF00BF7E
:100BAC000837BD4680BD80B586B000AF0346B9603E
:100BBC007A60FB7300237B61FFF75EFF78617A68D4
:100BCC00B9687869FFF790FF024697F90F30114624
:100BDC001846FFF75FFF00BF1837BD4680BD80B5D4
:100BEC0082B000AF78607868FFF7B0FF0346184614
:100BFC000837BD4680BD000080B48BB000AF786074
:100C0C00396000237B6200233B6269E101227B6A2D
:100C1C0002FA03F3FB613B681B68FA691340BB6182
:100C2C00BA69FB699A4240F058813B685B689A4A02
:100C3C0093425ED0984A934275D8984A934258D0C2
:100C4C00964A93426FD8964A934252D0944A934212
:100C5C0069D8944A93424CD0924A934263D8924AB0
:100C6C00934246D0904A93425DD8122B2AD8122B2D
:100C7C0059D801A252F823F0FF0C0008D90C000837
:100C8C00EB0C00082D0D0008330D0008330D000887
:100C9C00330D0008330D0008330D0008330D000828
:100CAC00330D0008330D0008330D0008330D000818
:100CBC00330D0008330D0008330D0008E10C00085B
:100CCC00F50C0008794A934213D02CE03B68DB68A2
:100CDC003B6229E03B68DB6804333B6224E03B6801
:100CEC00DB6808333B621FE03B68DB680C333B621C
:100CFC001AE03B689B68002B02D104233B6213E093
:100D0C003B689B68012B05D108233B627B68FA6921
:100D1C001A6109E008233B627B68FA695A6103E0B7
:100D2C0000233B6200E000BFBB69FF2B01D87B684E
:100D3C0001E07B6804337B61BB69FF2B02D87B6AC3
:100D4C009B0002E07B6A083B9B003B617B691A6855
:100D5C000F213B6901FA03F3DB431A40396A3B6903
:100D6C0001FA03F31A437B691A603B685B6803F072
:100D7C008053002B00F0B1804D4B9B694C4A43F0E3
:100D8C00010393614A4B9B6903F00103BB60BB6891
:100D9C00484A7B6A9B08023352F82330FB607B6A1B
:100DAC0003F003039B000F2202FA03F3DB43FA6800
:100DBC001340FB607B68404A934213D07B683F4AE8
:100DCC0093420DD07B683E4A934207D07B683D4AE4
:100DDC00934201D1032306E0042304E0022302E042
:100DEC00012300E000237A6A02F003029200934090
:100DFC00FA681343FB602F497B6A9B080233FA683D
:100E0C0041F823203B685B6803F48013002B06D069
:100E1C002D4B9A682C49BB6913438B6006E02A4B17
:100E2C009A68BB69DB43284913408B603B685B685D
:100E3C0003F40013002B06D0234BDA682249BB695C
:100E4C001343CB6006E0204BDA68BB69DB431E49D9
:100E5C001340CB603B685B6803F40033002B06D077
:100E6C00194B5A681849BB6913434B6006E0164B83
:100E7C005A68BB69DB43144913404B603B685B68A1
:100E8C0003F48033002B21D00F4B1A680E49BB6939
:100E9C0013430B6021E000BF000032100000311042
:100EAC000000221000002110000012100000111090
:100EBC00001002400000014000080140000C0140FD
:100ECC000010014000140140000401400B4B1A6853
:100EDC00BB69DB43094913400B607B6A01337B62BE
:100EEC003B681A687B6A22FA03F3002B7FF48EAE00
:100EFC0000BF00BF2C37BD4680BC704700040140CA
:100F0C0080B483B000AF78600B467B8013467B7057
:100F1C007B78002B03D07A887B681A6103E07B888E
:100F2C001A047B681A6100BF0C37BD4680BC704741
:100F3C0080B584B000AF78607B68002B01D10123B1
:100F4C002BE17B6893F83D30DBB2002B06D17B683C
:100F5C00002283F83C207868FFF7CCFB7B682422C6
:100F6C0083F83D207B681B681A687B681B6822F03D
:100F7C0001021A607B681B681A687B681B6842F464
:100F8C0000421A607B681B681A687B681B6822F435
:100F9C0000421A6001F02AFDF8607B685B68814AA8
:100FAC00934207D8FB68804A934294BF01230023E5
:100FBC00DBB206E0FB687D4A934294BF0123002319
:100FCC00DBB2002B01D00123E7E0FB68784AA2FBDF
:100FDC0003239B0CBB607B681B685B6823F03F01A1
:100FEC007B681B68BA680A435A607B681B681B6A7B
:100FFC0023F03F017B685B686A4A934202D8BB6866
:10100C00013309E0BB684FF4967202FB03F3694AA3
:10101C00A2FB03239B0901337A6812680B4313620A
:10102C007B681B68DB6923F44F4222F0FF027B686C
:10103C005B685C498B4219D8FB68591E7B685B68FE
:10104C005B00B1FBF3F3591C40F6FC730B40002B17
:10105C000AD0FB68591E7B685B685B00B1FBF3F33D
:10106C000133C3F30B0351E004234FE07B689B680F
:10107C00002B11D1FB68581E7B6859680B465B002E
:10108C000B44B0FBF3F30133C3F30B03002B0CBF86
:10109C0001230023DBB212E0FB68581E7B68596801
:1010AC000B469B000B4499000B44B0FBF3F301334C
:1010BC00C3F30B03002B0CBF01230023DBB2002B6B
:1010CC0001D0012322E07B689B68002B0ED1FB68CA
:1010DC00581E7B6859680B465B000B44B0FBF3F35E
:1010EC000133C3F30B0343F400430FE0FB68581EBA
:1010FC007B6859680B469B000B4499000B44B0FB72
:10110C00F3F30133C3F30B0343F4404379680968E9
:10111C001343CB617B681B681B6823F0C0017B68A1
:10112C00DA697B681B6A1A437B681B680A431A607E
:10113C007B681B689B6823F4034323F0FF037A68E6
:10114C0011697A68D26811437A6812680B4393600C
:10115C007B681B68DB6823F0FF017B685A697B683E
:10116C009B691A437B681B680A43DA607B681B68BF
:10117C001A687B681B6842F001021A607B680022C7
:10118C001A647B68202283F83D207B6800221A6356
:10119C007B68002283F83E20002318461037BD469A
:1011AC0080BD00BFA08601007F841E00FF083D00AB
:1011BC0083DE1B43D34D621080B588B002AFF8605C
:1011CC00084611461A4603467B810B463B81134663
:1011DC00FB80FFF7FFFB7861FB6893F83D30DBB2D7
:1011EC00202B40F0D9807B690093192301226D4993
:1011FC00F86800F0FBFD0346002B01D00223CCE085
:10120C00FB6893F83C30012B01D10223C5E0FB684D
:10121C00012283F83C20FB681B681B6803F0010368
:10122C00012B07D0FB681B681A68FB681B6842F02F
:10123C0001021A60FB681B681A68FB681B6822F4C1
:10124C0000621A60FB68212283F83D20FB68402273
:10125C0083F83E20FB6800221A64FB683A6A5A62E3
:10126C00FB68BA8C5A85FB685B8D9AB2FB681A8551
:10127C00FB684D4ADA62F8883A8979897B6901936F
:10128C00BB6A00930346F86800F032FC0346002B5F
:10129C0052D0012381E07A69B96AF86800F0C0FE87
:1012AC000346002B0DD0FB681B6C042B07D1FB688D
:1012BC001B681A68FB681B6842F400721A600123F1
:1012CC006BE0FB685B6A1A78FB681B681A61FB6849
:1012DC005B6A5A1CFB685A62FB681B8D013B9AB215
:1012EC00FB681A85FB685B8D9BB2013B9AB2FB686D
:1012FC005A85FB681B685B6903F00403042B1BD144
:10130C00FB681B8D002B17D0FB685B6A1A78FB6897
:10131C001B681A61FB685B6A5A1CFB685A62FB68A3
:10132C001B8D013B9AB2FB681A85FB685B8D9BB2E7
:10133C00013B9AB2FB685A85FB681B8D002BAAD126
:10134C007A69B96AF86800F0B3FE0346002B0DD039
:10135C00FB681B6C042B07D1FB681B681A68FB68C5
:10136C001B6842F400721A60012316E0FB681B68CC
:10137C001A68FB681B6842F400721A60FB68202232
:10138C0083F83D20FB68002283F83E20FB68002296
:10139C0083F83C20002300E0022318461837BD4692
:1013AC0080BD00BF020010000000FFFF80B58CB0B4
:1013BC0002AFF860084611461A4603467B810B467D
:1013CC003B811346FB8000233B62FFF703FB7862F3
:1013DC00FB6893F83D30DBB2202B40F050827B6AE7
:1013EC000093192301228249F86800F0FFFC0346A0
:1013FC00002B01D0022343E2FB6893F83C30012B15
:10140C0001D102233CE2FB68012283F83C20FB68FB
:10141C001B681B6803F00103012B07D0FB681B68DA
:10142C001A68FB681B6842F001021A60FB681B68B3
:10143C001A68FB681B6822F400621A60FB6822229F
:10144C0083F83D20FB68402283F83E20FB68002295
:10145C001A64FB683A6B5A62FB68BA8E5A85FB6851
:10146C005B8D9AB2FB681A85FB68624ADA62F8886F
:10147C003A8979897B6A0193BB6B00930346F868C0
:10148C0000F0CCFB0346002B01D00123F8E1FB68F4
:10149C001B8D002B13D10023FB61FB681B685B6960
:1014AC00FB61FB681B689B69FB61FB69FB681B6844
:1014BC001A68FB681B6842F400721A60CCE1FB6886
:1014CC001B8D012B1ED1FB681B681A68FB681B68FF
:1014DC0022F480621A6072B600BF0023BB61FB6805
:1014EC001B685B69BB61FB681B689B69BB61BB6963
:1014FC00FB681B681A68FB681B6842F400721A6070
:10150C0062B635E0FB681B8D022B1ED1FB681B6895
:10151C001A68FB681B6842F400621A6072B600BF5E
:10152C0000237B61FB681B685B697B61FB681B6844
:10153C009B697B617B69FB681B681A68FB681B688D
:10154C0022F480621A6062B612E0FB681B681A68AB
:10155C00FB681B6842F480621A6000233B61FB68E5
:10156C001B685B693B61FB681B689B693B613B6962
:10157C0072E1FB681B8D032B00F21F81FB681B8D36
:10158C00012B23D17A6AB96BF86800F0D9FD0346B8
:10159C00002B01D0012373E1FB681B681A69FB68FF
:1015AC005B6AD2B21A70FB685B6A5A1CFB685A629F
:1015BC00FB681B8D013B9AB2FB681A85FB685B8D3F
:1015CC009BB2013B9AB2FB685A8545E1FB681B8DC7
:1015DC00022B52D17B6A0093BB6B00220649F86840
:1015EC0000F004FC0346002B08D0012348E100BFA7
:1015FC00020010000000FFFF0400010072B600BFE3
:10160C00FB681B681A68FB681B6842F400721A605E
:10161C00FB681B681A69FB685B6AD2B21A70FB68BC
:10162C005B6A5A1CFB685A62FB681B8D013B9AB2C1
:10163C00FB681A85FB685B8D9BB2013B9AB2FB6819
:10164C005A8562B600BFFB681B681A69FB685B6A47
:10165C00D2B21A70FB685B6A5A1CFB685A62FB6850
:10166C001B8D013B9AB2FB681A85FB685B8D9BB2A4
:10167C00013B9AB2FB685A85EEE07B6A0093BB6B28
:10168C0000228149F86800F0B1FB0346002B01D021
:10169C000123F5E0FB681B681A68FB681B6822F4E1
:1016AC0080621A6072B600BFFB681B681A69FB681F
:1016BC005B6AD2B21A70FB685B6A5A1CFB685A628E
:1016CC00FB681B8D013B9AB2FB681A85FB685B8D2E
:1016DC009BB2013B9AB2FB685A856C4B1B68DB08CA
:1016EC006B4AA2FB03231A0A13469B001344DA002D
:1016FC00D31A3B623B6A013B3B623B6A002B18D11D
:10170C00FB6800221A63FB68202283F83D20FB68EB
:10171C00002283F83E20FB681B6C43F02002FB6820
:10172C001A6462B600BFFB68002283F83C200123D8
:10173C00A6E0FB681B685B6903F00403042BD9D19A
:10174C00FB681B681A68FB681B6842F400721A601D
:10175C00FB681B681A69FB685B6AD2B21A70FB687B
:10176C005B6A5A1CFB685A62FB681B8D013B9AB280
:10177C00FB681A85FB685B8D9BB2013B9AB2FB68D8
:10178C005A8562B600BFFB681B681A69FB685B6A06
:10179C00D2B21A70FB685B6A5A1CFB685A62FB680F
:1017AC001B8D013B9AB2FB681A85FB685B8D9BB263
:1017BC00013B9AB2FB685A854EE07A6AB96BF868BD
:1017CC0000F0BEFC0346002B01D0012358E0FB685F
:1017DC001B681A69FB685B6AD2B21A70FB685B6A99
:1017EC005A1CFB685A62FB681B8D013B9AB2FB6862
:1017FC001A85FB685B8D9BB2013B9AB2FB685A85DC
:10180C00FB681B685B6903F00403042B24D1FB68A1
:10181C001B8D032B07D1FB681B681A68FB681B68C0
:10182C0022F480621A60FB681B681A69FB685B6AA9
:10183C00D2B21A70FB685B6A5A1CFB685A62FB686E
:10184C001B8D013B9AB2FB681A85FB685B8D9BB2C2
:10185C00013B9AB2FB685A85FB681B8D002B7FF409
:10186C0088AEFB68202283F83D20FB68002283F8B9
:10187C003E20FB68002283F83C20002300E002237A
:10188C0018462837BD4680BD04000100000000202A
:10189C0089B5F81480B58AB002AFF8607A603B6005
:1018AC000B467B81FFF796F8F8610023BB61FB6860
:1018BC0093F83D30DBB2202B40F01181FB69009393
:1018CC00192301228849F86800F090FA0346002B8E
:1018DC0001D0022304E1FB6893F83C30012B01D1C9
:1018EC000223FDE0FB68012283F83C20FB681B68A7
:1018FC001B6803F00103012B07D0FB681B681A68F7
:10190C00FB681B6842F001021A60FB681B681A68CE
:10191C00FB681B6822F400621A60FB68242283F8BF
:10192C003D20FB6800221A64FB68704ADA62FB688F
:10193C001B681A68FB681B6842F480721A60FB69AA
:10194C0000933B6800224FF00111F86800F04EFA4A
:10195C000346002B0DD0FB681B681B6803F48073D7
:10196C00B3F5807F03D1FB684FF400721A64032334
:10197C00B6E07B89DBB21A46FB681B6802F0FE02FC
:10198C001A61FFF727F8F861FB681B685B6903F0C5
:10199C000203022B0CBF01230023DBB2FB75FB6897
:1019AC001B685B6903F48063B3F5806F0CBF012384
:1019BC000023DBB2BB7525E0FFF70CF80246FB6990
:1019CC00D31A3A689A4202D33B68002B03D1FB68C6
:1019DC00A02283F83D20FB681B685B6903F00203BF
:1019EC00022B0CBF01230023DBB2FB75FB681B68C9
:1019FC005B6903F48063B3F5806F0CBF0123002394
:101A0C00DBB2BB75FB6893F83D30DBB2A02B05D085
:101A1C00FB7D002B02D1BB7D002BCDD0FB6820229F
:101A2C0083F83D20FB681B685B6903F00203022B03
:101A3C0029D1FB681B681A68FB681B6842F40072AA
:101A4C001A6000233B61FB681B685B693B61FB68A8
:101A5C001B689B693B613B69FB690093192301225D
:101A6C002149F86800F0C2F90346002B01D001238C
:101A7C0036E0FB68202283F83D20FB68002283F8C7
:101A8C003C2000232CE0FB681B681A68FB681B6871
:101A9C0042F400721A60FB681B686FF480625A6132
:101AAC00FB690093192301220F49F86800F09EF995
:101ABC000346002B01D0012312E0BB690133BB614B
:101ACC00BA697B689A42FFF432AFFB68202283F834
:101ADC003D20FB68002283F83C20012300E0022318
:101AEC0018462037BD4680BD020010000000FFFFE5
:101AFC0080B588B002AFF860084611461A46034616
:101B0C007B810B463B811346FB80FB681B681A6884
:101B1C00FB681B6842F480721A607B6A00933B6A14
:101B2C0000224FF00111F86800F060F90346002B19
:101B3C000DD0FB681B681B6803F48073B3F5807FC2
:101B4C0003D1FB684FF400721A6403235FE07B89B6
:101B5C00DBB21A46FB681B6802F0FE021A617B6A54
:101B6C003A6A2D49F86800F0BBF90346002B01D006
:101B7C0001234CE000237B61FB681B685B697B6184
:101B8C00FB681B689B697B617B697A6A396AF868B8
:101B9C0000F046FA0346002B0DD0FB681B6C042B9F
:101BAC0007D1FB681B681A68FB681B6842F400725B
:101BBC001A6001232BE0FB88012B05D13B89DAB29B
:101BCC00FB681B681A6121E03B891B0A9BB2DAB2E5
:101BDC00FB681B681A617A6A396AF86800F020FAA7
:101BEC000346002B0DD0FB681B6C042B07D1FB6844
:101BFC001B681A68FB681B6842F400721A600123A8
:101C0C0005E03B89DAB2FB681B681A6100231846B1
:101C1C001837BD4680BD00BF0200010080B588B0FA
:101C2C0002AFF860084611461A4603467B810B4604
:101C3C003B811346FB80FB681B681A68FB681B68BA
:101C4C0042F480621A60FB681B681A68FB681B68A8
:101C5C0042F480721A607B6A00933B6A00224FF058
:101C6C000111F86800F0C2F80346002B0DD0FB6898
:101C7C001B681B6803F48073B3F5807F03D1FB688A
:101C8C004FF400721A640323AAE07B89DBB21A4674
:101C9C00FB681B6802F0FE021A617B6A3A6A5249C1
:101CAC00F86800F01DF90346002B01D0012397E0E2
:101CBC0000237B61FB681B685B697B61FB681B68AD
:101CCC009B697B617B697A6A396AF86800F0A8F9CC
:101CDC000346002B0DD0FB681B6C042B07D1FB6853
:101CEC001B681A68FB681B6842F400721A600123B7
:101CFC0076E0FB88012B05D13B89DAB2FB681B68C7
:101D0C001A6121E03B891B0A9BB2DAB2FB681B68A3
:101D1C001A617A6A396AF86800F082F90346002B76
:101D2C000DD0FB681B6C042B07D1FB681B681A6871
:101D3C00FB681B6842F400721A60012350E03B8977
:101D4C00DAB2FB681B681A617A6A396AF86800F0C3
:101D5C0067F90346002B0DD0FB681B6C042B07D1D5
:101D6C00FB681B681A68FB681B6842F400721A60F7
:101D7C00012335E0FB681B681A68FB681B6842F49A
:101D8C0080721A607B6A00933B6A00224FF001114B
:101D9C00F86800F02BF80346002B0DD0FB681B688D
:101DAC001B6803F48073B3F5807F03D1FB684FF499
:101DBC0000721A64032313E07B89DBB243F0010346
:101DCC00DAB2FB681B681A617B6A3A6A0649F868E2
:101DDC0000F086F80346002B01D0012300E000231D
:101DEC0018461837BD4680BD0200010080B584B08E
:101DFC0000AFF860B9603B601346FB7148E03B688C
:101E0C00B3F1FF3F44D0FEF7E5FD0246BB69D31AA0
:101E1C003A689A4202D33B68002B39D1BB681B0C41
:101E2C00DBB2012B0DD1FB681B685B69DA43BB6825
:101E3C0013409BB2002B0CBF01230023DBB21A46CC
:101E4C000CE0FB681B689B69DA43BB6813409BB2D0
:101E5C00002B0CBF01230023DBB21A46FB799A42FC
:101E6C0016D1FB6800221A63FB68202283F83D2000
:101E7C00FB68002283F83E20FB681B6C43F02002B9
:101E8C00FB681A64FB68002283F83C20012323E0E2
:101E9C00BB681B0CDBB2012B0DD1FB681B685B69AB
:101EAC00DA43BB6813409BB2002B0CBF0123002309
:101EBC00DBB21A460CE0FB681B689B69DA43BB6813
:101ECC0013409BB2002B0CBF01230023DBB21A463C
:101EDC00FB799A4293D0002318461037BD4680BD3B
:101EEC0080B584B000AFF860B9607A603B6071E097
:101EFC00FB681B685B6903F48063B3F5806F23D1C7
:101F0C00FB681B681A68FB681B6842F400721A6055
:101F1C00FB681B686FF480625A61FB6800221A63CD
:101F2C00FB68202283F83D20FB68002283F83E20CA
:101F3C00FB681B6C43F00402FB681A64FB6800220C
:101F4C0083F83C20012367E07B68B3F1FF3F41D06D
:101F5C00FEF740FD02463B68D31A7A689A4202D3D8
:101F6C007B68002B36D1BB681B0CDBB2012B0CD170
:101F7C00FB681B685B69DA43BB6813409BB2002BA0
:101F8C0014BF01230023DBB20BE0FB681B689B69C9
:101F9C00DA43BB6813409BB2002B14BF0123002310
:101FAC00DBB2002B16D0FB6800221A63FB682022E0
:101FBC0083F83D20FB68002283F83E20FB681B6CF5
:101FCC0043F02002FB681A64FB68002283F83C2073
:101FDC00012321E0BB681B0CDBB2012B0CD1FB688D
:101FEC001B685B69DA43BB6813409BB2002B14BFC0
:101FFC0001230023DBB20BE0FB681B689B69DA430F
:10200C00BB6813409BB2002B14BF01230023DBB22F
:10201C00002B7FF46DAF002318461037BD4680BDF2
:10202C0080B584B000AFF860B9607A6034E0F868CD
:10203C0000F0E3F80346002B01D0012334E0BB6829
:10204C00B3F1FF3F28D0FEF7C5FC02467B68D31ADC
:10205C00BA689A4202D3BB68002B1DD1FB681B687F
:10206C005B6903F08003802B16D0FB6800221A6397
:10207C00FB68202283F83D20FB68002283F83E2079
:10208C00FB681B6C43F02002FB681A64FB6800229F
:10209C0083F83C20012307E0FB681B685B6903F0B5
:1020AC008003802BC3D1002318461037BD4680BD5A
:1020BC0080B584B000AFF860B9607A6034E0F8683D
:1020CC0000F09BF80346002B01D0012334E0BB68E1
:1020DC00B3F1FF3F28D0FEF77DFC02467B68D31A94
:1020EC00BA689A4202D3BB68002B1DD1FB681B68EF
:1020FC005B6903F00403042B16D0FB6800221A63FF
:10210C00FB68202283F83D20FB68002283F83E20E8
:10211C00FB681B6C43F02002FB681A64FB6800220E
:10212C0083F83C20012307E0FB681B685B6903F024
:10213C000403042BC3D1002318461037BD4680BDC1
:10214C0080B584B000AFF860B9607A6049E0FB6894
:10215C001B685B6903F01003102B19D1FB681B681B
:10216C006FF010025A61FB6800221A63FB68202290
:10217C0083F83D20FB68002283F83E20FB681A6C34
:10218C00FB681A64FB68002283F83C20012330E0D2
:10219C00FEF720FC02467B68D31ABA689A4202D337
:1021AC00BB68002B1DD1FB681B685B6903F0400307
:1021BC00402B16D0FB6800221A63FB68202283F8A0
:1021CC003D20FB68002283F83E20FB681B6C43F02B
:1021DC002002FB681A64FB68002283F83C20012370
:1021EC0007E0FB681B685B6903F04003402BAED132
:1021FC00002318461037BD4680BD80B483B000AFB5
:10220C0078607B681B685B6903F48063B3F5806F4F
:10221C001BD17B681B686FF480625A617B6800225B
:10222C001A637B68202283F83D207B68002283F8A8
:10223C003E207B681B6C43F004027B681A647B684D
:10224C00002283F83C20012300E0002318460C37C1
:10225C00BD4680BC7047000080B586B000AF78608A
:10226C007B68002B01D1012372E27B681B6803F0B1
:10227C000103002B00F08780924B5B6803F00C038A
:10228C00042B0CD08F4B5B6803F00C03082B12D182
:10229C008C4B5B6803F48033B3F5803F0BD1894BD7
:1022AC001B6803F40033002B6CD07B685B68002B3D
:1022BC0068D101234CE27B685B68B3F5803F06D1A3
:1022CC00804B1B687F4A43F4803313602EE07B689D
:1022DC005B68002B0CD17B4B1B687A4A23F4803350
:1022EC001360784B1B68774A23F4802313601DE03E
:1022FC007B685B68B3F5A02F0CD1724B1B68714ADD
:10230C0043F4802313606F4B1B686E4A43F4803395
:10231C0013600BE06B4B1B686A4A23F48033136029
:10232C00684B1B68674A23F4802313607B685B68E7
:10233C00002B13D0FEF74EFB386108E0FEF74AFB8A
:10234C0002463B69D31A642B01D9032300E25D4B8F
:10235C001B6803F40033002BF0D014E0FEF73AFBBB
:10236C00386108E0FEF736FB02463B69D31A642B52
:10237C0001D90323ECE1534B1B6803F40033002B0E
:10238C00F0D100E000BF7B681B6803F00203002B58
:10239C0063D04C4B5B6803F00C03002B0BD0494B08
:1023AC005B6803F00C03082B1CD1464B5B6803F4F1
:1023BC008033002B16D1434B1B6803F00203002B18
:1023CC0005D07B681B69012B01D00123C0E13D4B7B
:1023DC001B6823F0F8027B685B69DB003949134307
:1023EC000B603AE07B681B69002B20D0364B012236
:1023FC001A60FEF7EFFA386108E0FEF7EBFA0246D6
:10240C003B69D31A022B01D90323A1E12D4B1B6885
:10241C0003F00203002BF0D02A4B1B6823F0F802C8
:10242C007B685B69DB00274913430B6015E0264B87
:10243C0000221A60FEF7CEFA386108E0FEF7CAFAFD
:10244C0002463B69D31A022B01D9032380E11D4BB1
:10245C001B6803F00203002BF0D17B681B6803F0B0
:10246C000803002B3AD07B689B69002B19D0174BC3
:10247C0001221A60FEF7AEFA386108E0FEF7AAFAFC
:10248C0002463B69D31A022B01D9032360E10D4BA1
:10249C005B6A03F00203002BF0D0012000F0CEFAAF
:1024AC001CE00A4B00221A60FEF794FA38610FE028
:1024BC00FEF790FA02463B69D31A022B08D9032384
:1024CC0046E100BF0010024000004242800442423C
:1024DC00924B5B6A03F00203002BE9D17B681B680B
:1024EC0003F00403002B00F0A6800023FB758B4B3C
:1024FC00DB6903F08053002B0DD1884BDB69874AD5
:10250C0043F08053D361854BDB6903F08053BB6090
:10251C00BB680123FB75824B1B6803F48073002B93
:10252C0018D17F4B1B687E4A43F480731360FEF70F
:10253C0051FA386108E0FEF74DFA02463B69D31AAE
:10254C00642B01D9032303E1754B1B6803F48073DF
:10255C00002BF0D07B68DB68012B06D16F4B1B6A1C
:10256C006E4A43F0010313622DE07B68DB68002B9D
:10257C000CD16A4B1B6A694A23F001031362674B47
:10258C001B6A664A23F0040313621CE07B68DB6859
:10259C00052B0CD1614B1B6A604A43F00403136298
:1025AC005E4B1B6A5D4A43F0010313620BE05B4B0D
:1025BC001B6A5A4A23F001031362584B1B6A574A91
:1025CC0023F0040313627B68DB68002B15D0FEF745
:1025DC0001FA38610AE0FEF7FDF902463B69D31AAD
:1025EC0041F28832934201D90323B1E04B4B1B6A71
:1025FC0003F00203002BEED014E0FEF7EBF9386188
:10260C000AE0FEF7E7F902463B69D31A41F2883239
:10261C00934201D903239BE0404B1B6A03F0020356
:10262C00002BEED1FB7D012B05D13C4BDB693B4AEA
:10263C0023F08053D3617B68DB69002B00F087802B
:10264C00364B5B6803F00C03082B61D07B68DB69AD
:10265C00022B46D1334B00221A60FEF7BBF93861CE
:10266C0008E0FEF7B7F902463B69D31A022B01D9F1
:10267C0003236DE0294B1B6803F00073002BF0D192
:10268C007B681B6AB3F5803F08D1244B5B6823F44D
:10269C0000327B689B68214913434B601F4B5B687E
:1026AC0023F474127B68196A7B685B6A0B431B49C1
:1026BC0013434B601B4B01221A60FEF78BF93861F8
:1026CC0008E0FEF787F902463B69D31A022B01D9C1
:1026DC0003233DE0114B1B6803F00073002BF0D07B
:1026EC0035E0104B00221A60FEF774F9386108E0EF
:1026FC00FEF770F902463B69D31A022B01D903236A
:10270C0026E0064B1B6803F00073002BF0D11EE093
:10271C007B68DB69012B07D1012319E00010024013
:10272C0000700040600042420B4B5B68FB60FB6832
:10273C0003F480327B681B6A9A4206D1FB6803F46F
:10274C0070127B685B6A9A4201D0012300E000237F
:10275C0018461837BD4680BD0010024080B584B0C5
:10276C0000AF786039607B68002B01D10123D0E089
:10277C006A4B1B6803F007033A689A4210D9674BFF
:10278C001B6823F0070265493B6813430B60634BDE
:10279C001B6803F007033A689A4201D00123B8E0A2
:1027AC007B681B6803F00203002B20D07B681B683E
:1027BC0003F00403002B05D0594B5B68584A43F4D3
:1027CC00E06353607B681B6803F00803002B05D0A3
:1027DC00534B5B68524A43F460535360504B5B68F5
:1027EC0023F0F0027B689B684D4913434B607B6878
:1027FC001B6803F00103002B40D07B685B68012B46
:10280C0007D1474B1B6803F40033002B15D1012370
:10281C007FE07B685B68022B07D1414B1B6803F0A0
:10282C000073002B09D1012373E03D4B1B6803F0AF
:10283C000203002B01D101236BE0394B5B6823F0C1
:10284C0003027B685B68364913434B60FEF7C2F8A2
:10285C00F8600AE0FEF7BEF80246FB68D31A41F2B4
:10286C008832934201D9032353E02D4B5B6803F06C
:10287C000C027B685B689B009A42EBD1274B1B6870
:10288C0003F007033A689A4210D2244B1B6823F0DA
:10289C00070222493B6813430B60204B1B6803F073
:1028AC0007033A689A4201D0012332E07B681B6827
:1028BC0003F00403002B08D0194B5B6823F4E0628F
:1028CC007B68DB68164913434B607B681B6803F01D
:1028DC000803002B09D0124B5B6823F460527B6811
:1028EC001B69DB000E4913434B6000F021F80246D4
:1028FC000B4B5B681B0903F00F030A49CB5C22FAF4
:10290C0003F3094A1360094B1B681846FEF720F8BD
:10291C00002318461037BD4680BD00BF0020024082
:10292C0000100240EC3800080000002004000020D9
:10293C0080B487B000AF0023FB600023BB60002392
:10294C007B6100237B6000233B611E4B5B68FB605B
:10295C00FB6803F00C03042B02D0082B03D027E0F8
:10296C00194B3B6127E0FB689B0C03F00F03174AE4
:10297C00D35C7B60FB6803F48033002B10D0114BCD
:10298C005B685B0C03F00103114AD35CBB607B6892
:10299C000D4A03FB02F2BB68B2FBF3F37B6104E06C
:1029AC007B680C4A02FB03F37B617B693B6102E0B1
:1029BC00054B3B6100BF3B6918461C37BD4680BCCC
:1029CC00704700BF0010024000127A000439000862
:1029DC001439000800093D0080B400AF024B1B689D
:1029EC001846BD4680BC70470000002080B500AF83
:1029FC00FFF7F2FF0246054B5B681B0A03F0070367
:102A0C000349CB5C22FA03F3184680BD0010024048
:102A1C00FC38000880B500AFFFF7DEFF0246054B1F
:102A2C005B68DB0A03F007030349CB5C22FA03F370
:102A3C00184680BD00100240FC38000880B485B0F8
:102A4C0000AF78600A4B1B680A4AA2FB03235B0A9F
:102A5C007A6802FB03F3FB6000BFFB685A1EFA6046
:102A6C00002BF9D100BF00BF1437BD4680BC7047A6
:102A7C0000000020D34D621080B582B000AF7860AA
:102A8C007B68002B01D1012342E07B6893F8413035
:102A9C00DBB2002B06D17B68002283F840207868DB
:102AAC00FDF766FE7B68242283F841207B681B6857
:102ABC00DA687B681B6822F40052DA60786800F0F0
:102ACC0071F97B681B681A697B681B6822F4904259
:102ADC001A617B681B685A697B681B6822F02A02A2
:102AEC005A617B681B68DA687B681B6842F4005289
:102AFC00DA607B6800225A647B68202283F84120CC
:102B0C007B68202283F842207B6800225A630023D2
:102B1C0018460837BD4680BD80B58AB002AFF86054
:102B2C00B9603B601346FB8000237B61FB6893F824
:102B3C004130DBB2202B75D1BB68002B02D0FB8857
:102B4C00002B01D101236EE0FB6800225A64FB6864
:102B5C00212283F84120FDF73DFF7861FB68FA885C
:102B6C009A84FB68FA88DA84FB689B68B3F5805F0B
:102B7C0008D1FB681B69002B04D10023FB61BB68E7
:102B8C00BB6103E0BB68FB610023BB612EE03B68CB
:102B9C0000937B6900228021F86800F048F8034616
:102BAC00002B05D0FB68202283F8412003233AE058
:102BBC00FB69002B0BD1BB691B881A46FB681B6891
:102BCC00C2F308025A60BB690233BB6107E0FB69C0
:102BDC001A78FB681B685A60FB690133FB61FB6860
:102BEC00DB8C9BB2013B9AB2FB68DA84FB68DB8C12
:102BFC009BB2002BCBD13B6800937B690022402118
:102C0C00F86800F014F80346002B05D0FB6820226E
:102C1C0083F84120032306E0FB68202283F841203F
:102C2C00002300E0022318462037BD4680BD80B546
:102C3C0086B000AFF860B9603B601346FB713BE0B7
:102C4C003B6AB3F1FF3F37D0FDF7C4FE02463B6849
:102C5C00D31A3A6A9A4202D33B6A002B01D103235E
:102C6C003AE0FB681B68DB6803F00403002B23D0FD
:102C7C00BB68802B20D0BB68402B1DD0FB681B6829
:102C8C001B6803F00803082B16D100237B61FB683B
:102C9C001B681B687B61FB681B685B687B617B69DD
:102CAC00F86800F01DF8FB6808225A64FB680022E3
:102CBC0083F8402001230FE0FB681B681A68BB688F
:102CCC001340BA689A420CBF01230023DBB21A46A8
:102CDC00FB799A42B4D0002318461837BD4680BD04
:102CEC0080B495B000AF78607B681B680C337B6355
:102CFC007B6B53E8003F3B633B6B23F49073FB64AB
:102D0C007B681B680C33FA6C3A64FB63F96B3A6CA6
:102D1C0041E80023BB63BB6B002BE5D17B681B68D0
:102D2C0014333B623B6A53E8003FFB61FB6923F0C1
:102D3C000103BB647B681B681433BA6CFA62BB6218
:102D4C00B96AFA6A41E800237B627B6A002BE5D101
:102D5C007B681B6B012B19D17B681B680C33FB60E8
:102D6C00FB6853E8003FBB60BB6823F010037B6437
:102D7C007B681B680C337A6CBA617B617969BA69C0
:102D8C0041E800233B613B69002BE5D17B682022A5
:102D9C0083F842207B6800221A6300BF5437BD467B
:102DAC0080BC704780B584B000AF78607B681B68CE
:102DBC001B6923F440517B68DA687B681B680A4303
:102DCC001A617B689A687B681B691A437B685B692C
:102DDC001343BB607B681B68DB6823F4B05323F0A0
:102DEC000C037A681268B9680B43D3607B681B6864
:102DFC005B6923F440717B689A697B681B680A43A2
:102E0C005A617B681B682C4A934203D1FFF702FE80
:102E1C00F86002E0FFF7EAFDF860FA6813469B00E1
:102E2C0013449A001A447B685B689B00B2FBF3F373
:102E3C00224AA2FB03235B091901FA6813469B0083
:102E4C0013449A001A447B685B689B00B2FBF3F254
:102E5C001A4BA3FB02035B09642000FB03F3D31A98
:102E6C001B013233154AA2FB03235B0903F0F00369
:102E7C001944FA6813469B0013449A001A447B6861
:102E8C005B689B00B2FBF3F20C4BA3FB02035B09E8
:102E9C00642000FB03F3D31A1B013233074AA2FB55
:102EAC0003235B0903F00F027B681B680A449A60DA
:102EBC0000BF1037BD4680BD003801401F85EB5167
:102ECC000EB46FF0004110B500249DB01FAB029002
:102EDC000690079104910948094953F8042B059170
:102EEC00006802A901931B9400F092F9029B1C70DC
:102EFC001DB0BDE8104003B0704700BF0C000020AF
:102F0C000802FFFF03460244934200D1704703F8C6
:102F1C00011BF9E7014B1868704700BF0C0000203B
:102F2C0070B500260C4D0D4C641BA410A64209D1A3
:102F3C0000F076FC00260A4D0A4C641BA410A64235
:102F4C0005D170BD55F8043B98470136EEE755F8AE
:102F5C00043B98470136F2E754390008543900080D
:102F6C0054390008583900087047704738B5054681
:102F7C00002940D051F8043C0C1F002BB8BFE418BA
:102F8C0000F0DEF81C4A136833B9636014602846FD
:102F9C00BDE8384000F0DAB8A34208D920682118FF
:102FAC008B4201BF19685B6809182160EDE71A466E
:102FBC005B680BB1A342FAD911685018A0420BD12F
:102FCC0020680144501883421160E0D118685B6896
:102FDC00084410605360DAE702D90C232B60D6E763
:102FEC00206821188B4201BF19685B6809182160A1
:102FFC0063605460CBE738BD6002002070B50F4EA3
:10300C000C463168054611B900F0A8FB306021462A
:10301C00284600F0A3FB431C03D14FF0FF3420469D
:10302C0070BDC41C24F00304A042F8D0211A284619
:10303C0000F094FB0130F2D1EFE700BF5C020020FE
:10304C002DE9F843CD1C25F0030508350C2D38BFB0
:10305C000C25002D064601DBA94204D90C23336054
:10306C000020BDE8F883DFF8D48000F069F8D8F8C8
:10307C0000301C4644BB29463046FFF7BFFF431CBB
:10308C00044658D1D8F800402746002F43D1002CD5
:10309C004BD023683946304604EB030900F05EFB45
:1030AC00814542D1216830466D1A2946FFF7A6FFAB
:1030BC0001303AD023682B442360D8F800305A688A
:1030CC0062BBC8F800700FE02268521B20D40B2A98
:1030DC0017D96119A342256018BF5960636808BFEE
:1030EC00C8F8001062514B60304600F02FF804F124
:1030FC000B00231D20F00700C21A1CBF1B1AA35083
:10310C00AFE76268A3420CBFC8F800205A60EBE737
:10311C0023466468AEE73C467F68B6E71A465B68B0
:10312C00A342FBD100235360DEE70C23304633600F
:10313C0000F00CF894E70560D6E700BF60020020B1
:10314C000148FFF711BF00BF580200200148FFF7EC
:10315C000CBF00BF580200202DE9F0471F468E68B7
:10316C008246BE420C4690460B682DD8B1F90C2015
:10317C0012F4906F26D06569096905EB4505A3EB40
:10318C00010905EBD5757B1C4B446D109D4238BF76
:10319C001D46530527D52946FFF752FF064660B357
:1031AC004A46216900F0F8FAA38923F4906343F0AE
:1031BC008003A38126614E4426603E466561A5EBE3
:1031CC000905A560BE4200D93E46324641462068FC
:1031DC0000F0AAFA0020A3689B1BA3602368334469
:1031EC002360BDE8F0872A4600F0E4FA0646002882
:1031FC00E0D150462169FFF7B9FE0C23CAF8003024
:10320C00A3894FF0FF3043F04003A381E9E70000AE
:10321C002DE9F04F98468B8907461B060D46144640
:10322C009DB010D50B6973B94021FFF709FF2860D9
:10323C00286130B90C233B604FF0FF301DB0BDE866
:10324C00F08F40236B610023099320238DF82930E4
:10325C0030234FF00109CDF80C80DFF898818DF800
:10326C002A3023469A4613F8012B0AB1252AF9D1A4
:10327C00BAEB040B0BD05B46224629463846FFF7C7
:10328C006BFF013000F0A780099A5A4409929AF812
:10329C000030002B00F09F8000234FF0FF32CDE96F
:1032AC0005230AF1010A049307938DF853301A93FE
:1032BC005446052214F8011B4E4800F05FFA049A9C
:1032CC00D8B9D00644BF20238DF85330110744BF22
:1032DC002B238DF853309AF800302A2B15D05446F6
:1032EC0000204FF00A0C079A214611F8013B303BA5
:1032FC00092B4BD9B0B1079214E0A0EB080309FAE3
:10330C0003F31343A2460493D2E7039B191D1B68D6
:10331C000391002BBBBF5B4242F002020793079361
:10332C00B8BF049223782E2B0AD163782A2B32D182
:10333C00039B02341A1D1B68039243EAE373059343
:10334C00DFF8B4A003225046217800F017FA38B108
:10335C004022049BA0EB0A008240134301340493E7
:10336C0014F8011B062225488DF8281000F006FAE7
:10337C00002836D0224B1BBB039B073323F00703DB
:10338C0008330393099B334409936AE70C460120E5
:10339C000CFB0232A8E700234FF00A0C194601344B
:1033AC000593204610F8012B303A092A03D9002B3B
:1033BC00C6D00591C4E7044601230CFB0121F0E7BC
:1033CC0003AB00932A4638460E4B04A9AFF300809A
:1033DC00421C0646D6D1AB895B063FF52DAF09984A
:1033EC002CE703AB00932A463846064B04A900F0A1
:1033FC007DF8EDE7163900081C3900082039000863
:10340C0000000000653100082DE9F047164698468B
:10341C008A680B6907469342B8BF1346336091F82C
:10342C0043200C46DDF820900AB101333360236849
:10343C00990642BF336802333360256815F00605E0
:10344C0006D104F1190AE36832689B1AAB422BDCF3
:10345C0094F843302268003B18BF0123920630D405
:10346C004146384604F14302C847013023D0236853
:10347C00226903F00603042B14BF002533684FF0B8
:10348C00000608BFE56804F11A0408BFED1A54F8E9
:10349C00123C08BF25EAE5759342C4BF9B1AED1890
:1034AC00B5421AD1002008E0012352464146384665
:1034BC00C847013003D14FF0FF30BDE8F08701352C
:1034CC00C1E73020E11881F843005A1C94F84510EC
:1034DC002244023382F84310C2E7012322464146BC
:1034EC003846C8470130E6D00136D9E72DE9FF4709
:1034FC000F7E9146782F80460C469A460C9E01F121
:10350C00430207D8622F0AD8002F00F0D180582F21
:10351C0000F0B88004F1420684F842703AE0A7F15A
:10352C006303152BF6D801A151F823F0913500084F
:10353C00A535000821350008213500082135000883
:10354C0021350008A5350008213500082135000873
:10355C002135000821350008A3360008CF350008B6
:10356C005D3600082135000821350008C5360008F5
:10357C0021350008CF350008213500082135000819
:10358C006536000833681A1D1B68326004F1420668
:10359C0084F8423001239CE033682068191D3160A7
:1035AC00060601D51D6803E04506FBD5B3F90050AE
:1035BC00002D03DA2D236D4284F843300A2358483A
:1035CC0011E021683368080653F8045B02D44906FD
:1035DC0048BFADB26F2F336014BF0A230823504885
:1035EC00002184F843106668002EA66005DB216874
:1035FC002E4321F0040121604BD01646B5FBF3F1AC
:10360C0003FB1157C75D06F8017D2F46BB420D46E3
:10361C00F4D9082B0BD12368DF0708D5236961681F
:10362C009942DEBF302306F8013C06F1FF36921BAF
:10363C0022614B4621464046CDF800A003AAFFF775
:10364C00E3FE01304AD14FF0FF3004B0BDE8F08703
:10365C00236843F0200323607827324884F84570B0
:10366C00236831681F0651F8045B02D45F0648BF1B
:10367C00ADB23160D90744BF43F0200323601DB1C4
:10368C001023ADE72648E9E7236823F020032360E5
:10369C00F6E71646BDE733682568181D616930608A
:1036AC002E061B6801D5196002E06806FBD519804F
:1036BC00002316462361BCE7336800211A1D3260D3
:1036CC001E686268304600F059F808B1801B6060D3
:1036DC0063682361002384F84330AAE732464946E5
:1036EC0040462369D0470130ADD023689B0713D4E3
:1036FC00E068039B9842B8BF1846A6E70123324600
:10370C0049464046D04701309DD00135E3680399C6
:10371C005B1AAB42F2DCEBE7002504F11906F5E786
:10372C002739000838390008884210B501EB02042B
:10373C0002D98442234607D8431EA14208D011F86F
:10374C00012B03F8012FF8E7014602448A4200D10D
:10375C0010BD13F8014D02F8014DF7E738B5002301
:10376C00054D044608462B60FDF77AF8431C02D140
:10377C002B6803B1236038BD54020020034610B5FA
:10378C00C9B202449342184601D1002003E00478E8
:10379C0001338C42F6D110BD0A44914200F1FF3343
:1037AC0000D1704710B511F8014B914203F8014F4D
:1037BC00F9D110BD2DE9F041074614460D4621B94B
:1037CC001146BDE8F041FFF73BBC2AB9FFF7CEFB31
:1037DC0025462846BDE8F08100F01AF884420646DA
:1037EC0002D8B4EB500FF4D821463846FFF728FC2A
:1037FC00804608B94546ECE7B4422246294628BF24
:10380C003246FFF7C9FF29463846FFF7AFFBF1E711
:10381C0051F8043C181F002BBCBF0B58C018704744
:10382C00F8B500BFF8BC08BC9E467047F8B500BFA1
:08383C00F8BC08BC9E46704771
:10384400466F756E643A203078253032580D0A0080
:103854005363616E205374617274202E2E2E0D0AF0
:10386400000000005363616E2053746F7020202E9B
:103874002E2E0D0A000000004164786C20666F75DE
:103884006E6420202E2E2E0D0A0000004144584C58
:1038940033343520646973636F6E6E656374656475
:1038A400210D0A00583A20256420593A2025642025
:1038B4005A3A2025640D0A004144584C33343520CB
:1038C400496E6974204661696C6564210D0A0000C3
:1038D4004144584C333435204E4F5420464F554EB6
:1038E40044210D0A00000000000000000000000058
:1038F4000102030406070809000000000102030492
:1039040002030405060708090A0B0C0D0E0F10101C
:103914000102232D302B2000686C4C00656667453E
:103924004647003031323334353637383941424333
:1039340044454600303132333435363738396162E4
:083944006364656600000000E9
:08394C0000C8FF7F010000002C
:043954003101000835
:043958000D01000855
:10395C0000127A001000000001000000100000208E
:10396C00000000001C01002084010020EC0100205C
:10397C00000000000000000000000000000000003B
:10398C00000000000000000000000000000000002B
:10399C00000000000000000000000000000000001B
:0C39AC000000000000000000000000000F
:04000005080008E502
:00000001FF
